:100000000C9434000C9451000C9451000C94510049
:100010000C9451000C9451000C9451000C9451001C
:100020000C9451000C9451000C9451000C947C00E1
:100030000C9451000C9451000C9451000C945100FC
:100040000C9451000C9451000C9451000C945100EC
:100050000C9451000C9453000C9451000C945100DA
:100060000C9451000C94510011241FBECFEFD8E026
:10007000DEBFCDBF12E0A0E0B1E0EAEAF3E002C0EB
:1000800005900D92A23EB107D9F712E0A2EEB2E0C0
:1000900001C01D92A03FB107E1F70E94BB010C9483
:1000A000D3010C9400001F920F920FB60F921124EF
:1000B0008F939F938091790090917C00903641F0CE
:1000C000913659F490E09093EF028093EE0205C0D0
:1000D0008093B40090937C0003C080E680937C0002
:1000E00080917A00806480937A009F918F910F9025
:1000F0000FBE0F901F9018951F920F920FB60F9280
:1001000011242F933F938F939F938091EA029091B4
:10011000EB0201969093EB028093EA02299880917A
:10012000000190E02091EA023091EB022817390794
:1001300061F4299A1092EB021092EA028091000178
:10014000853618F08150809300019F918F913F91E7
:100150002F910F900FBE0F901F901895EAE7F0E0D7
:1001600080818760808380E680937C0080818860C6
:100170008083808180688083089587EC90E09093ED
:1001800089008093880010928000E1E8F0E080818F
:1001900088608083808181608083EFE6F0E08081E9
:1001A000826080830895F894219A0E9407010E943A
:1001B00047010E94BD00549A2EE088E190E00FB6FE
:1001C000F894A895809360000FBE20936000789407
:1001D0000895E1ECF0E0808188618083E2ECF0E05A
:1001E0008081866080831092C50081E88093C4007E
:1001F000089580E00895E1E8F0E0808181608083E7
:100200000895E1E8F0E080818E7F8083089584B1D5
:100210008C6284B98CB580658CBD0895249A8CB5A8
:1002200080648CBD08958EBD0DB407FEFDCF8EB5E4
:1002300008950DB407FEFDCF8EB50895882311F003
:100240005E9A01C05E985D98862F0E9413015D9AA8
:100250000895CF93C62F682F606880E00E941E012A
:100260006C2F606480E0CF910C941E01CF93DF93DC
:10027000C8EFD1E060E081E00E941E012197209745
:10028000C9F760E080E0DF91CF910C9429018AB139
:10029000806E8AB95F985F9A61E280E00E941E01D9
:1002A00064EB80E00E941E0164E080E00E941E0179
:1002B00064E180E00E941E0160E280E00E941E0175
:1002C0006CE080E00E941E010C9436010F931F9396
:1002D000CF93DF93082F60E081E00E941E0185E04C
:1002E000089F800111240F5F1E4FC0E0D0E0F8018D
:1002F000EC0FFD1FE05AF109608181E00E941E01B0
:100300002196C530D10599F760E081E0DF91CF916A
:100310001F910F910C941E01CF93DF9360E177E260
:100320000E94BF01EC0180E3860F0E946601CE01AE
:1003300068EE73E00E94BF01EC0180E3860F0E942B
:100340006601CE0164E670E00E94BF01EC0180E32B
:10035000860F0E946601CE016AE070E00E94BF0134
:10036000C82F80E3860F0E94660180E38C0FDF9127
:10037000CF910C9466010E94D300A895FECFAA1BD2
:10038000BB1B51E107C0AA1FBB1FA617B70710F080
:10039000A61BB70B881F991F5A95A9F780959095B2
:0A03A000BC01CD010895F894FFCFD1
:1003AA00C8000000000000005F000000070007000E
:1003BA00147F147F14242A7F2A12231308646236B6
:1003CA00495522500005030000001C22410000414B
:1003DA00221C0014083E081408083E080800503081
:1003EA0000000808080808006060000020100804DF
:1003FA00023E5149453E00427F4000426151494612
:10040A002141454B311814127F1027454545393C87
:10041A004A494930017109050336494949360649AD
:10042A0049291E00363600000056360000081422FC
:10043A004100141414141400412214080201510931
:10044A0006324979413E7E1111117E7F494949366A
:10045A003E414141227F4141221C7F494949417F16
:10046A00090909013E4149497A7F0808087F004184
:10047A007F41002040413F017F081422417F4040D4
:10048A0040407F020C027F7F0408107F3E414141B9
:10049A003E7F090909063E4151215E7F0919294615
:1004AA00464949493101017F01013F4040403F1F10
:1004BA002040201F3F4038403F6314081463070858
:1004CA007008076151494543007F41410002040811
:1004DA0010200041417F00040201020440404040D4
:1004EA0040000102040020545454787F48444438A0
:1004FA003844444420384444487F385454541808F3
:10050A007E0901020C5252523E7F080404780044CC
:10051A007D40002040443D007F1028440000417F78
:10052A0040007C041804787C080404783844444465
:10053A00387C14141408081414187C7C0804040861
:10054A004854545420043F4440203C4040207C1CE2
:10055A002040201C3C4030403C44281028440C5089
:10056A0050503C4464544C44000836410000007F1B
:10057A000000004136080010080810087846414675
:02058A007800F7
:00000001FF
